{
  "_format": "hh-sol-artifact-1",
  "contractName": "Contract",
  "sourceName": "contracts/Contract.sol",
  "abi": [
    {
      "inputs": [],
      "stateMutability": "nonpayable",
      "type": "constructor"
    },
    {
      "anonymous": false,
      "inputs": [
        {
          "indexed": true,
          "internalType": "bytes32",
          "name": "id",
          "type": "bytes32"
        },
        {
          "indexed": false,
          "internalType": "address",
          "name": "from",
          "type": "address"
        }
      ],
      "name": "FundsClaimed",
      "type": "event"
    },
    {
      "anonymous": false,
      "inputs": [
        {
          "indexed": true,
          "internalType": "bytes32",
          "name": "id",
          "type": "bytes32"
        },
        {
          "indexed": false,
          "internalType": "address",
          "name": "from",
          "type": "address"
        }
      ],
      "name": "FundsDonated",
      "type": "event"
    },
    {
      "anonymous": false,
      "inputs": [
        {
          "indexed": false,
          "internalType": "bytes32",
          "name": "id",
          "type": "bytes32"
        },
        {
          "indexed": true,
          "internalType": "address",
          "name": "from",
          "type": "address"
        }
      ],
      "name": "ProjectCreated",
      "type": "event"
    },
    {
      "anonymous": false,
      "inputs": [
        {
          "indexed": true,
          "internalType": "bytes32",
          "name": "id",
          "type": "bytes32"
        },
        {
          "indexed": false,
          "internalType": "bool",
          "name": "hidden",
          "type": "bool"
        }
      ],
      "name": "ProjectVisibilitySet",
      "type": "event"
    },
    {
      "inputs": [
        {
          "internalType": "bytes32",
          "name": "id",
          "type": "bytes32"
        }
      ],
      "name": "claimProjectFunds",
      "outputs": [],
      "stateMutability": "nonpayable",
      "type": "function"
    },
    {
      "inputs": [
        {
          "internalType": "string",
          "name": "title",
          "type": "string"
        },
        {
          "internalType": "string",
          "name": "description",
          "type": "string"
        },
        {
          "internalType": "uint256",
          "name": "requestedAmount",
          "type": "uint256"
        },
        {
          "internalType": "string",
          "name": "image",
          "type": "string"
        }
      ],
      "name": "createProject",
      "outputs": [],
      "stateMutability": "nonpayable",
      "type": "function"
    },
    {
      "inputs": [
        {
          "internalType": "bytes32",
          "name": "id",
          "type": "bytes32"
        },
        {
          "internalType": "uint256",
          "name": "amount",
          "type": "uint256"
        },
        {
          "internalType": "string",
          "name": "message",
          "type": "string"
        }
      ],
      "name": "donateToProject",
      "outputs": [],
      "stateMutability": "nonpayable",
      "type": "function"
    },
    {
      "inputs": [
        {
          "internalType": "bytes32",
          "name": "id",
          "type": "bytes32"
        }
      ],
      "name": "getProject",
      "outputs": [
        {
          "components": [
            {
              "internalType": "bytes32",
              "name": "id",
              "type": "bytes32"
            },
            {
              "internalType": "address",
              "name": "creator",
              "type": "address"
            },
            {
              "internalType": "string",
              "name": "title",
              "type": "string"
            },
            {
              "internalType": "uint256",
              "name": "requestedAmount",
              "type": "uint256"
            },
            {
              "internalType": "string",
              "name": "description",
              "type": "string"
            },
            {
              "internalType": "string",
              "name": "image",
              "type": "string"
            },
            {
              "internalType": "uint256",
              "name": "fundedAmount",
              "type": "uint256"
            },
            {
              "internalType": "uint256",
              "name": "claimedAmount",
              "type": "uint256"
            },
            {
              "internalType": "address[]",
              "name": "donators",
              "type": "address[]"
            },
            {
              "internalType": "uint256",
              "name": "createdAt",
              "type": "uint256"
            },
            {
              "internalType": "contract Qavah",
              "name": "qavah",
              "type": "address"
            },
            {
              "internalType": "bool",
              "name": "hidden",
              "type": "bool"
            }
          ],
          "internalType": "struct Contract.Project",
          "name": "",
          "type": "tuple"
        }
      ],
      "stateMutability": "view",
      "type": "function"
    },
    {
      "inputs": [],
      "name": "getProjects",
      "outputs": [
        {
          "components": [
            {
              "internalType": "bytes32",
              "name": "id",
              "type": "bytes32"
            },
            {
              "internalType": "address",
              "name": "creator",
              "type": "address"
            },
            {
              "internalType": "string",
              "name": "title",
              "type": "string"
            },
            {
              "internalType": "uint256",
              "name": "requestedAmount",
              "type": "uint256"
            },
            {
              "internalType": "string",
              "name": "description",
              "type": "string"
            },
            {
              "internalType": "string",
              "name": "image",
              "type": "string"
            },
            {
              "internalType": "uint256",
              "name": "fundedAmount",
              "type": "uint256"
            },
            {
              "internalType": "uint256",
              "name": "claimedAmount",
              "type": "uint256"
            },
            {
              "internalType": "address[]",
              "name": "donators",
              "type": "address[]"
            },
            {
              "internalType": "uint256",
              "name": "createdAt",
              "type": "uint256"
            },
            {
              "internalType": "contract Qavah",
              "name": "qavah",
              "type": "address"
            },
            {
              "internalType": "bool",
              "name": "hidden",
              "type": "bool"
            }
          ],
          "internalType": "struct Contract.Project[]",
          "name": "",
          "type": "tuple[]"
        }
      ],
      "stateMutability": "view",
      "type": "function"
    },
    {
      "inputs": [
        {
          "internalType": "address",
          "name": "userAddress",
          "type": "address"
        }
      ],
      "name": "getProjectsByUser",
      "outputs": [
        {
          "components": [
            {
              "internalType": "bytes32",
              "name": "id",
              "type": "bytes32"
            },
            {
              "internalType": "address",
              "name": "creator",
              "type": "address"
            },
            {
              "internalType": "string",
              "name": "title",
              "type": "string"
            },
            {
              "internalType": "uint256",
              "name": "requestedAmount",
              "type": "uint256"
            },
            {
              "internalType": "string",
              "name": "description",
              "type": "string"
            },
            {
              "internalType": "string",
              "name": "image",
              "type": "string"
            },
            {
              "internalType": "uint256",
              "name": "fundedAmount",
              "type": "uint256"
            },
            {
              "internalType": "uint256",
              "name": "claimedAmount",
              "type": "uint256"
            },
            {
              "internalType": "address[]",
              "name": "donators",
              "type": "address[]"
            },
            {
              "internalType": "uint256",
              "name": "createdAt",
              "type": "uint256"
            },
            {
              "internalType": "contract Qavah",
              "name": "qavah",
              "type": "address"
            },
            {
              "internalType": "bool",
              "name": "hidden",
              "type": "bool"
            }
          ],
          "internalType": "struct Contract.Project[]",
          "name": "",
          "type": "tuple[]"
        }
      ],
      "stateMutability": "view",
      "type": "function"
    },
    {
      "inputs": [],
      "name": "getQavahsCount",
      "outputs": [
        {
          "internalType": "uint256",
          "name": "",
          "type": "uint256"
        }
      ],
      "stateMutability": "view",
      "type": "function"
    },
    {
      "inputs": [
        {
          "internalType": "address",
          "name": "_usdTokenAddress",
          "type": "address"
        },
        {
          "internalType": "string",
          "name": "_siteUrl",
          "type": "string"
        },
        {
          "internalType": "uint256",
          "name": "_root",
          "type": "uint256"
        }
      ],
      "name": "initialize",
      "outputs": [],
      "stateMutability": "nonpayable",
      "type": "function"
    },
    {
      "inputs": [],
      "name": "root",
      "outputs": [
        {
          "internalType": "uint256",
          "name": "",
          "type": "uint256"
        }
      ],
      "stateMutability": "view",
      "type": "function"
    },
    {
      "inputs": [],
      "name": "siteUrl",
      "outputs": [
        {
          "internalType": "string",
          "name": "",
          "type": "string"
        }
      ],
      "stateMutability": "view",
      "type": "function"
    },
    {
      "inputs": [
        {
          "internalType": "bytes32",
          "name": "id",
          "type": "bytes32"
        }
      ],
      "name": "toggleProjectVisibility",
      "outputs": [],
      "stateMutability": "nonpayable",
      "type": "function"
    },
    {
      "inputs": [],
      "name": "usdTokenAddress",
      "outputs": [
        {
          "internalType": "address",
          "name": "",
          "type": "address"
        }
      ],
      "stateMutability": "view",
      "type": "function"
    }
  ],
  "bytecode": "0x60806040523480156200001157600080fd5b50600054610100900460ff166200002f5760005460ff161562000039565b62000039620000de565b620000a15760405162461bcd60e51b815260206004820152602e60248201527f496e697469616c697a61626c653a20636f6e747261637420697320616c72656160448201526d191e481a5b9a5d1a585b1a5e995960921b606482015260840160405180910390fd5b600054610100900460ff16158015620000c4576000805461ffff19166101011790555b8015620000d7576000805461ff00191690555b506200010b565b6000620000f630620000fc60201b62001b691760201c565b15905090565b6001600160a01b03163b151590565b615b45806200011b6000396000f3fe60806040523480156200001157600080fd5b5060043610620000c35760003560e01c8063a010c7ad116200007a578063a010c7ad1462000185578063b4eddc72146200019c578063dcc6012814620001c2578063e24be64d14620001cc578063ebf0c71714620001e3578063f5330bb414620001ed57600080fd5b80631825f39114620000c85780633eac8dac14620000e15780634657571414620001185780634b5f748a146200012f5780636993297a14620001555780638dac9bbc146200016e575b600080fd5b620000df620000d936600462002ccb565b62000206565b005b600054620000fb906201000090046001600160a01b031681565b6040516001600160a01b0390911681526020015b60405180910390f35b620000df6200012936600462002d39565b62000417565b620001466200014036600462002ccb565b6200081b565b6040516200010f919062003d73565b6200015f62000ae6565b6040519081526020016200010f565b620000df6200017f36600462002c4b565b62000b66565b620000df6200019636600462002ccb565b62000c5f565b620001b3620001ad36600462002c27565b62000d30565b6040516200010f919062003cf9565b620001b36200115c565b620000df620001dd36600462002ce4565b62001508565b6200015f60025481565b620001f762001ad3565b6040516200010f919062003d5e565b600081815260036020526040902060018101546001600160a01b03163314620002885760405162461bcd60e51b815260206004820152602960248201527f4f6e6c792070726f6a6563742063726561746f722063616e20636c61696d2074604482015268343290333ab732399760b91b60648201526084015b60405180910390fd5b600081600701548260060154620002a0919062003ee4565b905060008111620002f45760405162461bcd60e51b815260206004820152601a60248201527f5468657265206973206e6f7468696e6720746f20636c61696d2e00000000000060448201526064016200027f565b60005460405163a9059cbb60e01b815233600482015260248101839052620100009091046001600160a01b03169063a9059cbb90604401602060405180830381600087803b1580156200034657600080fd5b505af11580156200035b573d6000803e3d6000fd5b505050506040513d601f19601f8201168201806040525081019062000381919062002ca9565b620003c25760405162461bcd60e51b815260206004820152601060248201526f2a3930b739b332b9103330b4b632b21760811b60448201526064016200027f565b80826007016000828254620003d8919062003d88565b909155505060405133815283907feff38a64c4ca4e4df09019118ef2dfa3e4d59b5c982b35299dac2f42f308a1f79060200160405180910390a2505050565b85620004665760405162461bcd60e51b815260206004820181905260248201527f50726f6a656374207469746c65206d757374206e6f7420626520656d7074792e60448201526064016200027f565b600a6200047c670de0b6b3a76400008562003da3565b1015620004d85760405162461bcd60e51b8152602060048201526024808201527f52657175657374656420616d6f756e74206265206174206c65617374203130206044820152632aa9a21760e11b60648201526084016200027f565b600454604080514260208083019190915281830193909352815180820383018152606090910182528051908301206000818152600390935291206002018054620005229062003f4b565b159050620005655760405162461bcd60e51b815260206004820152600f60248201526e24b73a32b93730b61032b93937b91760891b60448201526064016200027f565b6200056f620029bf565b8181523360208083019190915260408051601f8b01839004830281018301909152898152908a908a908190840183828082843760009201919091525050505060408083019190915280516020601f8901819004810282018101909252878152908890889081908401838280828437600092019190915250505050608082015260608101859052604080516020601f860181900481028201810190925284815290859085908190840183828082843760009201919091525050505060a082015242610120820152604051620006439062002a37565b604051809103906000f08015801562000660573d6000803e3d6000fd5b506001600160a01b0390811661014083015260008381526003602090815260409182902084518155818501516001820180546001600160a01b0319169190951617909355908301518051849392620006c092600285019291019062002a45565b506060820151600382015560808201518051620006e891600484019160209091019062002a45565b5060a082015180516200070691600584019160209091019062002a45565b5060c0820151600682015560e0820151600782015561010082015180516200073991600884019160209091019062002ad4565b506101208201516009820155610140820151600a9091018054610160909301511515600160a01b026001600160a81b03199093166001600160a01b03909216919091179190911790556004805460018181019092557f8a35acfbc15ff81a39ae7d344fd709f28e8600b4aa8c65c6b64bfe7fe36bd19b01839055336000818152600560209081526040808320805495860181558352912090920184905590517f72d3574e35dc5b7a620c3cbcb395fec0497a0427c47762bfe8deba4688f6ff1890620008089085815260200190565b60405180910390a2505050505050505050565b62000825620029bf565b6000828152600360209081526040918290208251610180810184528154815260018201546001600160a01b0316928101929092526002810180549293919291840191620008729062003f4b565b80601f0160208091040260200160405190810160405280929190818152602001828054620008a09062003f4b565b8015620008f15780601f10620008c557610100808354040283529160200191620008f1565b820191906000526020600020905b815481529060010190602001808311620008d357829003601f168201915b5050505050815260200160038201548152602001600482018054620009169062003f4b565b80601f0160208091040260200160405190810160405280929190818152602001828054620009449062003f4b565b8015620009955780601f10620009695761010080835404028352916020019162000995565b820191906000526020600020905b8154815290600101906020018083116200097757829003601f168201915b50505050508152602001600582018054620009b09062003f4b565b80601f0160208091040260200160405190810160405280929190818152602001828054620009de9062003f4b565b801562000a2f5780601f1062000a035761010080835404028352916020019162000a2f565b820191906000526020600020905b81548152906001019060200180831162000a1157829003601f168201915b5050505050815260200160068201548152602001600782015481526020016008820180548060200260200160405190810160405280929190818152602001828054801562000aa757602002820191906000526020600020905b81546001600160a01b0316815260019091019060200180831162000a88575b505050918352505060098201546020820152600a909101546001600160a01b0381166040830152600160a01b900460ff16151560609091015292915050565b600080805b60045481101562000b6057600360006004838154811062000b1c57634e487b7160e01b600052603260045260246000fd5b90600052602060002001548152602001908152602001600020600801805490508262000b49919062003d88565b91508062000b578162003f82565b91505062000aeb565b50919050565b600054610100900460ff1662000b835760005460ff161562000b87565b303b155b62000bec5760405162461bcd60e51b815260206004820152602e60248201527f496e697469616c697a61626c653a20636f6e747261637420697320616c72656160448201526d191e481a5b9a5d1a585b1a5e995960921b60648201526084016200027f565b600054610100900460ff1615801562000c0f576000805461ffff19166101011790555b6000805462010000600160b01b031916620100006001600160a01b0388160217905562000c3f6001858562002b2c565b506002829055801562000c58576000805461ff00191690555b5050505050565b73b24d63186f3392e86d68e36da6d24cf5d3d8885a331462000cbb5760405162461bcd60e51b815260206004820152601460248201527321b0b63632b91034b9903737ba1030b236b4b71760611b60448201526064016200027f565b600081815260036020908152604091829020600a8101805460ff600160a01b808304821615810260ff60a01b19909316929092179283905594519104909316151583529183917f3e857671b71e28ca9a27091dc669a5f3d5643480f5039d8c2be571a4cf4ecc0e910160405180910390a25050565b6001600160a01b038116600090815260056020908152604080832080548251818502810185019093528083526060949383018282801562000d9157602002820191906000526020600020905b81548152602001906001019080831162000d7c575b505050505090506000815167ffffffffffffffff81111562000dc357634e487b7160e01b600052604160045260246000fd5b60405190808252806020026020018201604052801562000e0057816020015b62000dec620029bf565b81526020019060019003908162000de25790505b50905060005b825181101562001154576003600084838151811062000e3557634e487b7160e01b600052603260045260246000fd5b6020026020010151815260200190815260200160002060405180610180016040529081600082015481526020016001820160009054906101000a90046001600160a01b03166001600160a01b03166001600160a01b0316815260200160028201805462000ea29062003f4b565b80601f016020809104026020016040519081016040528092919081815260200182805462000ed09062003f4b565b801562000f215780601f1062000ef55761010080835404028352916020019162000f21565b820191906000526020600020905b81548152906001019060200180831162000f0357829003601f168201915b505050505081526020016003820154815260200160048201805462000f469062003f4b565b80601f016020809104026020016040519081016040528092919081815260200182805462000f749062003f4b565b801562000fc55780601f1062000f995761010080835404028352916020019162000fc5565b820191906000526020600020905b81548152906001019060200180831162000fa757829003601f168201915b5050505050815260200160058201805462000fe09062003f4b565b80601f01602080910402602001604051908101604052809291908181526020018280546200100e9062003f4b565b80156200105f5780601f1062001033576101008083540402835291602001916200105f565b820191906000526020600020905b8154815290600101906020018083116200104157829003601f168201915b50505050508152602001600682015481526020016007820154815260200160088201805480602002602001604051908101604052809291908181526020018280548015620010d757602002820191906000526020600020905b81546001600160a01b03168152600190910190602001808311620010b8575b505050918352505060098201546020820152600a909101546001600160a01b0381166040830152600160a01b900460ff16151560609091015282518390839081106200113357634e487b7160e01b600052603260045260246000fd5b602002602001018190525080806200114b9062003f82565b91505062000e06565b509392505050565b60045460609060009067ffffffffffffffff8111156200118c57634e487b7160e01b600052604160045260246000fd5b604051908082528060200260200182016040528015620011c957816020015b620011b5620029bf565b815260200190600190039081620011ab5790505b50905060005b60045481101562000b605760036000600483815481106200120057634e487b7160e01b600052603260045260246000fd5b6000918252602080832090910154835282810193909352604091820190208151610180810183528154815260018201546001600160a01b0316938101939093526002810180549192840191620012569062003f4b565b80601f0160208091040260200160405190810160405280929190818152602001828054620012849062003f4b565b8015620012d55780601f10620012a957610100808354040283529160200191620012d5565b820191906000526020600020905b815481529060010190602001808311620012b757829003601f168201915b5050505050815260200160038201548152602001600482018054620012fa9062003f4b565b80601f0160208091040260200160405190810160405280929190818152602001828054620013289062003f4b565b8015620013795780601f106200134d5761010080835404028352916020019162001379565b820191906000526020600020905b8154815290600101906020018083116200135b57829003601f168201915b50505050508152602001600582018054620013949062003f4b565b80601f0160208091040260200160405190810160405280929190818152602001828054620013c29062003f4b565b8015620014135780601f10620013e75761010080835404028352916020019162001413565b820191906000526020600020905b815481529060010190602001808311620013f557829003601f168201915b505050505081526020016006820154815260200160078201548152602001600882018054806020026020016040519081016040528092919081815260200182805480156200148b57602002820191906000526020600020905b81546001600160a01b031681526001909101906020018083116200146c575b505050918352505060098201546020820152600a909101546001600160a01b0381166040830152600160a01b900460ff1615156060909101528251839083908110620014e757634e487b7160e01b600052603260045260246000fd5b60200260200101819052508080620014ff9062003f82565b915050620011cf565b600084815260036020819052604090912090810154600682015410620015675760405162461bcd60e51b815260206004820152601360248201527221b0b6b830b4b3b71034b99031b637b9b2b21760691b60448201526064016200027f565b60018101546001600160a01b0316331415620015c65760405162461bcd60e51b815260206004820152601e60248201527f596f752063616e6e6f7420646f6e61746520746f20796f757273656c662e000060448201526064016200027f565b6000546040516323b872dd60e01b815233600482015230602482015260448101869052620100009091046001600160a01b0316906323b872dd90606401602060405180830381600087803b1580156200161e57600080fd5b505af115801562001633573d6000803e3d6000fd5b505050506040513d601f19601f8201168201806040525081019062001659919062002ca9565b6200169a5760405162461bcd60e51b815260206004820152601060248201526f2a3930b739b332b9103330b4b632b21760811b60448201526064016200027f565b600081600301548560028054620016b2919062003e03565b620016be919062003ec2565b620016ca919062003da3565b905060008111620017105760405162461bcd60e51b815260206004820152600f60248201526e20b6b7bab73a103a37b7903637bb9760891b60448201526064016200027f565b600082600301546002805462001727919062003e03565b846006015462001738919062003ec2565b62001744919062003da3565b905060006002805462001758919062003e03565b600385015462001769908562003ec2565b62001775919062003da3565b9050808460060160008282546200178d919062003d88565b9091555050600884018054600181810183556000928352602080842090920180546001600160a01b03191633908117909155835260058252604080842080548084018255908552938390209093018b905582516101808101845287548152908701546001600160a01b03169181019190915260028601805462001a94938892908401916200181b9062003f4b565b80601f0160208091040260200160405190810160405280929190818152602001828054620018499062003f4b565b80156200189a5780601f106200186e576101008083540402835291602001916200189a565b820191906000526020600020905b8154815290600101906020018083116200187c57829003601f168201915b5050505050815260200160038201548152602001600482018054620018bf9062003f4b565b80601f0160208091040260200160405190810160405280929190818152602001828054620018ed9062003f4b565b80156200193e5780601f1062001912576101008083540402835291602001916200193e565b820191906000526020600020905b8154815290600101906020018083116200192057829003601f168201915b50505050508152602001600582018054620019599062003f4b565b80601f0160208091040260200160405190810160405280929190818152602001828054620019879062003f4b565b8015620019d85780601f10620019ac57610100808354040283529160200191620019d8565b820191906000526020600020905b815481529060010190602001808311620019ba57829003601f168201915b5050505050815260200160068201548152602001600782015481526020016008820180548060200260200160405190810160405280929190818152602001828054801562001a5057602002820191906000526020600020905b81546001600160a01b0316815260019091019060200180831162001a31575b505050918352505060098201546020820152600a909101546001600160a01b0381166040830152600160a01b900460ff1615156060909101528483858a8a62001b78565b60405133815288907f7abfb7da4a842d91a4fadb66a2ef0e5e3ad8f0b93855ec7955fce7ae928dec4f9060200160405180910390a25050505050505050565b6001805462001ae29062003f4b565b80601f016020809104026020016040519081016040528092919081815260200182805462001b109062003f4b565b801562001b615780601f1062001b355761010080835404028352916020019162001b61565b820191906000526020600020905b81548152906001019060200180831162001b4357829003601f168201915b505050505081565b6001600160a01b03163b151590565b600062001b89878786868662001c41565b9050600062001ba18289600001518887878c62001ca1565b90508761014001516001600160a01b031663d204c45e3362001bc38462001d3e565b60405160200162001bd5919062003663565b6040516020818303038152906040526040518363ffffffff1660e01b815260040162001c0392919062003cd3565b600060405180830381600087803b15801562001c1e57600080fd5b505af115801562001c33573d6000803e3d6000fd5b505050505050505050505050565b606062001c548660a00151868662001eb0565b865162001c619062001f0f565b62001c738860400151888787620022cc565b60405160200162001c879392919062002f78565b604051602081830303815290604052905095945050505050565b606062001cb762001cb162000ae6565b6200230a565b600162001cc48862002440565b60405160200162001cd792919062003101565b6040516020818303038152906040528862001cf2886200249b565b878762001cff886200230a565b62001d0a426200230a565b60405160200162001d2398979695949392919062003b5a565b60405160208183030381529060405290509695505050505050565b606081516000141562001d5f57505060408051602081019091526000815290565b600060405180606001604052806040815260200162005ad0604091399050600060038451600262001d91919062003d88565b62001d9d919062003da3565b62001daa90600462003ec2565b67ffffffffffffffff81111562001dd157634e487b7160e01b600052604160045260246000fd5b6040519080825280601f01601f19166020018201604052801562001dfc576020820181803683370190505b509050600182016020820185865187015b8082101562001e6a576003820191508151603f8160121c168501518453600184019350603f81600c1c168501518453600184019350603f8160061c168501518453600184019350603f811685015184535060018301925062001e0d565b505060038651066001811462001e89576002811462001e9d5762001ea5565b603d6001830353603d600283035362001ea5565b603d60018303535b509195945050505050565b606062001ec362001cb183600162003d88565b62001ed362001cb1858562003d88565b8562001ee262001cb162000ae6565b60405160200162001ef7949392919062003771565b60405160208183030381529060405290509392505050565b6060600062001f1d62002511565b905062001f2b8184620026b3565b60006005825162001f3d919062003da3565b67ffffffffffffffff81111562001f6457634e487b7160e01b600052604160045260246000fd5b60405190808252806020026020018201604052801562001f9957816020015b606081526020019060019003908162001f835790505b50905060005b8251811015620021215782818151811062001fca57634e487b7160e01b600052603260045260246000fd5b60200260200101518382600162001fe2919062003d88565b815181106200200157634e487b7160e01b600052603260045260246000fd5b60200260200101518483600262002019919062003d88565b815181106200203857634e487b7160e01b600052603260045260246000fd5b60200260200101518584600362002050919062003d88565b815181106200206f57634e487b7160e01b600052603260045260246000fd5b60200260200101518685600462002087919062003d88565b81518110620020a657634e487b7160e01b600052603260045260246000fd5b6020026020010151604051602001620020c495949392919062002fc1565b60408051601f1981840301815291905282620020e260058462003da3565b815181106200210157634e487b7160e01b600052603260045260246000fd5b60209081029190910101526200211960058262003d88565b905062001f9f565b50606060005b6005835162002137919062003da3565b811015620022c35781836200214e83600562003ec2565b815181106200216d57634e487b7160e01b600052603260045260246000fd5b60200260200101518483600562002185919062003ec2565b6200219290600162003d88565b81518110620021b157634e487b7160e01b600052603260045260246000fd5b602002602001015185846005620021c9919062003ec2565b620021d690600262003d88565b81518110620021f557634e487b7160e01b600052603260045260246000fd5b6020026020010151868560056200220d919062003ec2565b6200221a90600362003d88565b815181106200223957634e487b7160e01b600052603260045260246000fd5b60200260200101518786600562002251919062003ec2565b6200225e90600462003d88565b815181106200227d57634e487b7160e01b600052603260045260246000fd5b60200260200101516040516020016200229c9695949392919062003036565b60405160208183030381529060405291508080620022ba9062003f82565b91505062002127565b50949350505050565b6060848383620022dc876200230a565b604051602001620022f19493929190620031b1565b6040516020818303038152906040529050949350505050565b6060816200232f5750506040805180820190915260018152600360fc1b602082015290565b8160005b81156200235f5780620023468162003f82565b9150620023579050600a8362003da3565b915062002333565b60008167ffffffffffffffff8111156200238957634e487b7160e01b600052604160045260246000fd5b6040519080825280601f01601f191660200182016040528015620023b4576020820181803683370190505b5090505b84156200243857620023cc60018362003ee4565b9150620023db600a8662003fa0565b620023e890603062003d88565b60f81b8183815181106200240c57634e487b7160e01b600052603260045260246000fd5b60200101906001600160f81b031916908160001a90535062002430600a8662003da3565b9450620023b8565b949350505050565b606081620024685750506040805180820190915260048152630307830360e41b602082015290565b8160005b81156200248f57806200247f8162003f82565b915050600882901c91506200246c565b620024388482620027c0565b6060620024b562001cb1670de0b6b3a76400008462003da3565b620024e86064670de0b6b3a7640000620024d0868362003ec2565b620024dc919062003da3565b62001cb1919062003fa0565b604051602001620024fb929190620030c1565b6040516020818303038152906040529050919050565b606060006002805462002525919062003e03565b67ffffffffffffffff8111156200254c57634e487b7160e01b600052604160045260246000fd5b6040519080825280602002602001820160405280156200258157816020015b60608152602001906001900390816200256b5790505b50905060005b60025481101562000b605760005b6002548110156200269d57600254620025c190620025b584606462003ec2565b62001cb1919062003da3565b600254620025f0906001620025d7858362003ee4565b620025e3919062003ee4565b620025b590606462003ec2565b60025462002606906001620025d7878362003ee4565b6002546200261b90620025b586606462003ec2565b604051602001620026309493929190620036aa565b60405160208183030381529060405283826002548562002651919062003ec2565b6200265d919062003d88565b815181106200267c57634e487b7160e01b600052603260045260246000fd5b60200260200101819052508080620026949062003f82565b91505062002595565b5080620026aa8162003f82565b91505062002587565b600060018351620026c5919062003ee4565b90505b8015620027bb576000818451620026e0919062003ee4565b620026ec908462003fa0565b905060008483815181106200271157634e487b7160e01b600052603260045260246000fd5b6020026020010151905060008583815181106200273e57634e487b7160e01b600052603260045260246000fd5b60200260200101519050808685815181106200276a57634e487b7160e01b600052603260045260246000fd5b6020026020010181905250818684815181106200279757634e487b7160e01b600052603260045260246000fd5b60200260200101819052505050508080620027b29062003f31565b915050620026c8565b505050565b60606000620027d183600262003ec2565b620027de90600262003d88565b67ffffffffffffffff8111156200280557634e487b7160e01b600052604160045260246000fd5b6040519080825280601f01601f19166020018201604052801562002830576020820181803683370190505b509050600360fc1b816000815181106200285a57634e487b7160e01b600052603260045260246000fd5b60200101906001600160f81b031916908160001a905350600f60fb1b816001815181106200289857634e487b7160e01b600052603260045260246000fd5b60200101906001600160f81b031916908160001a9053506000620028be84600262003ec2565b620028cb90600162003d88565b90505b600181111562002965576f181899199a1a9b1b9c1cb0b131b232b360811b85600f16601081106200290f57634e487b7160e01b600052603260045260246000fd5b1a60f81b8282815181106200293457634e487b7160e01b600052603260045260246000fd5b60200101906001600160f81b031916908160001a90535060049490941c936200295d8162003f31565b9050620028ce565b508315620029b65760405162461bcd60e51b815260206004820181905260248201527f537472696e67733a20686578206c656e67746820696e73756666696369656e7460448201526064016200027f565b90505b92915050565b6040518061018001604052806000801916815260200160006001600160a01b03168152602001606081526020016000815260200160608152602001606081526020016000815260200160008152602001606081526020016000815260200160006001600160a01b031681526020016000151581525090565b611aec8062003fe483390190565b82805462002a539062003f4b565b90600052602060002090601f01602090048101928262002a77576000855562002ac2565b82601f1062002a9257805160ff191683800117855562002ac2565b8280016001018555821562002ac2579182015b8281111562002ac257825182559160200191906001019062002aa5565b5062002ad092915062002ba9565b5090565b82805482825590600052602060002090810192821562002ac2579160200282015b8281111562002ac257825182546001600160a01b0319166001600160a01b0390911617825560209092019160019091019062002af5565b82805462002b3a9062003f4b565b90600052602060002090601f01602090048101928262002b5e576000855562002ac2565b82601f1062002b795782800160ff1982351617855562002ac2565b8280016001018555821562002ac2579182015b8281111562002ac257823582559160200191906001019062002b8c565b5b8082111562002ad0576000815560010162002baa565b80356001600160a01b038116811462002bd857600080fd5b919050565b60008083601f84011262002bef578182fd5b50813567ffffffffffffffff81111562002c07578182fd5b60208301915083602082850101111562002c2057600080fd5b9250929050565b60006020828403121562002c39578081fd5b62002c448262002bc0565b9392505050565b6000806000806060858703121562002c61578283fd5b62002c6c8562002bc0565b9350602085013567ffffffffffffffff81111562002c88578384fd5b62002c968782880162002bdd565b9598909750949560400135949350505050565b60006020828403121562002cbb578081fd5b81518015158114620029b6578182fd5b60006020828403121562002cdd578081fd5b5035919050565b6000806000806060858703121562002cfa578384fd5b8435935060208501359250604085013567ffffffffffffffff81111562002d1f578283fd5b62002d2d8782880162002bdd565b95989497509550505050565b60008060008060008060006080888a03121562002d54578283fd5b873567ffffffffffffffff8082111562002d6c578485fd5b62002d7a8b838c0162002bdd565b909950975060208a013591508082111562002d93578485fd5b62002da18b838c0162002bdd565b909750955060408a0135945060608a013591508082111562002dc1578384fd5b5062002dd08a828b0162002bdd565b989b979a50959850939692959293505050565b6000815180845260208085019450808401835b8381101562002e1d5781516001600160a01b03168752958201959082019060010162002df6565b509495945050505050565b6000815162002e3c81856020860162003efe565b9290920192915050565b81818437506000910190815290565b6000815180845262002e6f81602086016020860162003efe565b601f01601f19169290920160200192915050565b600061018082518452602083015162002ea760208601826001600160a01b03169052565b50604083015181604086015262002ec18286018262002e55565b915050606083015160608501526080830151848203608086015262002ee7828262002e55565b91505060a083015184820360a086015262002f03828262002e55565b91505060c083015160c085015260e083015160e0850152610100808401518583038287015262002f34838262002de3565b925050506101208084015181860152506101408084015162002f60828701826001600160a01b03169052565b50506101609283015115159390920192909252919050565b6000845162002f8c81846020890162003efe565b84519083019062002fa281836020890162003efe565b845191019062002fb781836020880162003efe565b0195945050505050565b6000865162002fd5818460208b0162003efe565b86519083019062002feb818360208b0162003efe565b865191019062003000818360208a0162003efe565b85519101906200301581836020890162003efe565b84519101906200302a81836020880162003efe565b01979650505050505050565b6000875160206200304b8285838d0162003efe565b885191840191620030608184848d0162003efe565b8851920191620030748184848c0162003efe565b8751920191620030888184848b0162003efe565b86519201916200309c8184848a0162003efe565b8551920191620030b0818484890162003efe565b919091019998505050505050505050565b60008351620030d581846020880162003efe565b601760f91b9083019081528351620030f581600184016020880162003efe565b01600101949350505050565b600080845482600182811c9150808316806200311e57607f831692505b60208084108214156200313f57634e487b7160e01b87526022600452602487fd5b818015620031565760018114620031685762003196565b60ff1986168952848901965062003196565b60008b815260209020885b868110156200318e5781548b82015290850190830162003173565b505084890196505b505050505050620031a8818562002e28565b95945050505050565b7f3c666f726569676e4f626a65637420783d2736302720793d273236302720776981527f6474683d2732383027206865696768743d273336273e3c7370616e20786d6c6e60208201527f733d27687474703a2f2f7777772e77332e6f72672f313939392f7868746d6c2760408201527f207374796c653d27666f6e742d73697a653a313470783b666f6e742d7765696760608201527f68743a626f6c643b746578742d6f766572666c6f773a656c6c6970736973273e608082015260008551620032838160a0850160208a0162003efe565b7f3c2f7370616e3e3c2f666f726569676e4f626a6563743e3c666f726569676e4f60a0918401918201527f626a65637420783d2736302720793d27333034272077696474683d273234302760c08201527f206865696768743d27343027207374796c653d276c696e652d6865696768743a60e08201527f20302e38273e3c7370616e20786d6c6e733d27687474703a2f2f7777772e77336101008201527f2e6f72672f313939392f7868746d6c273e25453225383025393420000000000061012082015262003658620033e0620033d96200336461013b8501898b62002e46565b7f3c2f7370616e3e3c2f666f726569676e4f626a6563743e3c7465787420783d2781527f3333302720793d2733343427207374796c653d27666f6e742d7765696768743a60208201527f626f6c642720746578742d616e63686f723d27656e64273e0000000000000000604082015260580190565b8662002e28565b7f3c2f746578743e3c70617468207472616e73666f726d3d277472616e736c617481527f65283333322c333334292720643d274d382e3420312e39632d2e322e352d2e3960208201527f2e352d312e322e324c352e392e38612e382e382030203020302d312e3120306c60408201527f2d2e392e39412e382e3820302030203020342e332033632e362e322e3820312060608201527f2e3420312e346c2d2e332e33412e382e38203020302031203320342e33612e3860808201527f2e382030203020302d312e332d2e346c2d2e392e39632d2e332e332d2e332e3860a08201527f203020312e316c312e3320312e33632e332e332e3320312d2e3220312e322d2e60c08201527f352e332d2e3620312d2e3220312e336c2e362e36632e342e342031202e33203160e08201527f2e322d2e312e332d2e3620312d2e3620312e332d2e336c312e3320312e33632e6101008201527f332e332e382e3320312e3120306c2e392d2e39412e382e3820302030203020376101208201527f2e372039612e382e382030203020312d2e342d312e346c2e332d2e33612e382e6101408201527f3820302030203120312e342e34632e322e362e392e3820312e332e346c2e392d6101608201527f2e39632e332d2e332e332d2e3820302d312e314c392e3920342e38612e382e386101808201527f203020302031202e322d312e32632e352d2e332e362d31202e322d312e336c2d6101a08201527f2e362d2e36612e382e382030203020302d312e322e315a272066696c6c3d276e6101c08201527f6f6e6527207374726f6b653d2763757272656e74436f6c6f72272f3e3c2f73766101e082015261339f60f11b6102008201526102020190565b979650505050505050565b7f646174613a6170706c69636174696f6e2f6a736f6e3b6261736536342c0000008152600082516200369d81601d85016020870162003efe565b91909101601d0192915050565b7f3c75736520687265663d27253233612720636c69702d706174683d27696e73658152610e8560f31b602082015260008551620036ef816022850160208a0162003efe565b808301905061012960f51b806022830152865162003715816024850160208b0162003efe565b60249201918201819052855162003734816026850160208a0162003efe565b602692019182015283516200375181602884016020880162003efe565b64129493979f60d91b60289290910191820152602d019695505050505050565b7f3c7376672076696577426f783d2730203020343030203430302720786d6c6e7381527f3d27687474703a2f2f7777772e77332e6f72672f323030302f737667273e3c6460208201527f6566733e3c7374796c653e40696d706f72742075726c282768747470733a2f2f60408201527f666f6e74732e676f6f676c65617069732e636f6d2f637373323f66616d696c7960608201527f3d53706163652b47726f7465736b3a77676874403430303b37303027293b2a7b60808201527f636f6c6f723a2532333631316636397d746578742c7370616e7b666f6e742d7360a08201527f697a653a313070783b666f6e742d66616d696c793a2753706163652047726f7460c08201527f65736b272c73616e732d73657269663b66696c6c3a63757272656e74436f6c6f60e08201527f727d7573657b6f7061636974793a302e327d7573653a6e74682d6f662d7479706101008201526365286e2b60e01b610120820152600062003b5062003b3d62003b36620039666200395f620039256200391e620039016101248a018e62002e28565b70293a6e74682d6f662d74797065282d6e2b60781b815260110190565b8b62002e28565b7f297b6f7061636974793a317d3c2f7374796c653e3c696d6167652069643d27618152672720687265663d2760c01b602082015260280190565b8862002e28565b7f2720783d2734302720793d273634272077696474683d2733323027206865696781527f68743d27313830272f3e3c2f646566733e3c7265637420783d2734302720793d60208201527f273430272077696474683d2733323027206865696768743d273234272066696c60408201527f6c3d27253233666263633563272f3e3c7265637420783d2734302720793d273260608201527f3434272077696474683d2733323027206865696768743d27313136272066696c60808201527f6c3d27253233666263633563272f3e3c7265637420783d2733392720793d273360a08201527f39272077696474683d2733323227206865696768743d27333232272072783d2760c08201527f30272066696c6c3d276e6f6e6527207374726f6b653d2763757272656e74436f60e08201527f6c6f7227207374726f6b652d77696474683d2732272f3e3c74657874207374796101008201527f6c653d27666f6e742d7765696768743a626f6c642720783d273530252720793d6101208201527f2735332720646f6d696e616e742d626173656c696e653d276d6964646c6527206101408201527f746578742d616e63686f723d276d6964646c65273e716176616820253233000061016082015261017e0190565b8562002e28565b661e17ba32bc3a1f60c91b815260070190565b9695505050505050565b6f7b226e616d65223a225161766168202360801b8152885160009062003b88816010850160208e0162003efe565b701116113232b9b1b934b83a34b7b7111d1160791b601091840191820152895162003bbb816021840160208e0162003efe565b7f222c22696d616765223a22646174613a696d6167652f7376672b786d6c3b75746021929091019182015262198e0b60ea1b6041820152885162003c07816044840160208d0162003efe565b6a11161130b6b7bab73a111d60a91b60449290910191820152875162003c3581604f840160208c0162003efe565b62003cc362003cb662003caf62003c9662003c8f62003c7762003c6f604f888a01016b161136b2b9b9b0b3b2911d1160a11b8152600c0190565b8d8f62002e46565b6b1116113832b931b2b73a111d60a11b8152600c0190565b8a62002e28565b6c16113a34b6b2b9ba30b6b8111d60991b8152600d0190565b8762002e28565b607d60f81b815260010190565b9c9b505050505050505050505050565b6001600160a01b0383168152604060208201819052600090620024389083018462002e55565b6000602080830181845280855180835260408601915060408160051b8701019250838701855b8281101562003d5157603f1988860301845262003d3e85835162002e83565b9450928501929085019060010162003d1f565b5092979650505050505050565b60208152600062002c44602083018462002e55565b60208152600062002c44602083018462002e83565b6000821982111562003d9e5762003d9e62003fb7565b500190565b60008262003db55762003db562003fcd565b500490565b600181815b8085111562003dfb57816000190482111562003ddf5762003ddf62003fb7565b8085161562003ded57918102915b93841c939080029062003dbf565b509250929050565b600062002c4460ff84168360008262003e1f57506001620029b9565b8162003e2e57506000620029b9565b816001811462003e47576002811462003e525762003e72565b6001915050620029b9565b60ff84111562003e665762003e6662003fb7565b50506001821b620029b9565b5060208310610133831016604e8410600b841016171562003e97575081810a620029b9565b62003ea3838362003dba565b806000190482111562003eba5762003eba62003fb7565b029392505050565b600081600019048311821515161562003edf5762003edf62003fb7565b500290565b60008282101562003ef95762003ef962003fb7565b500390565b60005b8381101562003f1b57818101518382015260200162003f01565b8381111562003f2b576000848401525b50505050565b60008162003f435762003f4362003fb7565b506000190190565b600181811c9082168062003f6057607f821691505b6020821081141562000b6057634e487b7160e01b600052602260045260246000fd5b600060001982141562003f995762003f9962003fb7565b5060010190565b60008262003fb25762003fb262003fcd565b500690565b634e487b7160e01b600052601160045260246000fd5b634e487b7160e01b600052601260045260246000fdfe60806040523480156200001157600080fd5b50604051806040016040528060058152602001640a2c2ecc2d60db1b815250604051806040016040528060058152602001640a282ac82960db1b815250816000908051906020019062000066929190620000f5565b5080516200007c906001906020840190620000f5565b50505062000099620000936200009f60201b60201c565b620000a3565b620001d8565b3390565b600780546001600160a01b038381166001600160a01b0319831681179093556040519116919082907f8be0079c531659141344cd1fd0a4f28419497f9722a3daafe3b4186f6b6457e090600090a35050565b82805462000103906200019b565b90600052602060002090601f01602090048101928262000127576000855562000172565b82601f106200014257805160ff191683800117855562000172565b8280016001018555821562000172579182015b828111156200017257825182559160200191906001019062000155565b506200018092915062000184565b5090565b5b8082111562000180576000815560010162000185565b600181811c90821680620001b057607f821691505b60208210811415620001d257634e487b7160e01b600052602260045260246000fd5b50919050565b61190480620001e86000396000f3fe608060405234801561001057600080fd5b506004361061010b5760003560e01c8063715018a6116100a2578063b88d4fde11610071578063b88d4fde1461021b578063c87b56dd1461022e578063d204c45e14610241578063e985e9c514610254578063f2fde38b1461029057600080fd5b8063715018a6146101e75780638da5cb5b146101ef57806395d89b4114610200578063a22cb4651461020857600080fd5b806323b872dd116100de57806323b872dd1461018d57806342842e0e146101a05780636352211e146101b357806370a08231146101c657600080fd5b806301ffc9a71461011057806306fdde0314610138578063081812fc1461014d578063095ea7b314610178575b600080fd5b61012361011e3660046115ca565b6102a3565b60405190151581526020015b60405180910390f35b6101406102f5565b60405161012f91906116b2565b61016061015b366004611602565b610387565b6040516001600160a01b03909116815260200161012f565b61018b6101863660046115a1565b610414565b005b61018b61019b366004611454565b61052a565b61018b6101ae366004611454565b61055b565b6101606101c1366004611602565b610576565b6101d96101d4366004611408565b6105ed565b60405190815260200161012f565b61018b610674565b6007546001600160a01b0316610160565b6101406106aa565b61018b610216366004611508565b6106b9565b61018b61022936600461148f565b6106c8565b61014061023c366004611602565b610700565b61018b61024f366004611542565b61070b565b610123610262366004611422565b6001600160a01b03918216600090815260056020908152604080832093909416825291909152205460ff1690565b61018b61029e366004611408565b610764565b60006001600160e01b031982166380ac58cd60e01b14806102d457506001600160e01b03198216635b5e139f60e01b145b806102ef57506301ffc9a760e01b6001600160e01b03198316145b92915050565b6060600080546103049061180c565b80601f01602080910402602001604051908101604052809291908181526020018280546103309061180c565b801561037d5780601f106103525761010080835404028352916020019161037d565b820191906000526020600020905b81548152906001019060200180831161036057829003601f168201915b5050505050905090565b6000610392826107ff565b6103f85760405162461bcd60e51b815260206004820152602c60248201527f4552433732313a20617070726f76656420717565727920666f72206e6f6e657860448201526b34b9ba32b73a103a37b5b2b760a11b60648201526084015b60405180910390fd5b506000908152600460205260409020546001600160a01b031690565b600061041f82610576565b9050806001600160a01b0316836001600160a01b0316141561048d5760405162461bcd60e51b815260206004820152602160248201527f4552433732313a20617070726f76616c20746f2063757272656e74206f776e656044820152603960f91b60648201526084016103ef565b336001600160a01b03821614806104a957506104a98133610262565b61051b5760405162461bcd60e51b815260206004820152603860248201527f4552433732313a20617070726f76652063616c6c6572206973206e6f74206f7760448201527f6e6572206e6f7220617070726f76656420666f7220616c6c000000000000000060648201526084016103ef565b610525838361081c565b505050565b610534338261088a565b6105505760405162461bcd60e51b81526004016103ef9061174c565b610525838383610974565b610525838383604051806020016040528060008152506106c8565b6000818152600260205260408120546001600160a01b0316806102ef5760405162461bcd60e51b815260206004820152602960248201527f4552433732313a206f776e657220717565727920666f72206e6f6e657869737460448201526832b73a103a37b5b2b760b91b60648201526084016103ef565b60006001600160a01b0382166106585760405162461bcd60e51b815260206004820152602a60248201527f4552433732313a2062616c616e636520717565727920666f7220746865207a65604482015269726f206164647265737360b01b60648201526084016103ef565b506001600160a01b031660009081526003602052604090205490565b6007546001600160a01b0316331461069e5760405162461bcd60e51b81526004016103ef90611717565b6106a86000610b10565b565b6060600180546103049061180c565b6106c4338383610b62565b5050565b6106d2338361088a565b6106ee5760405162461bcd60e51b81526004016103ef9061174c565b6106fa84848484610c31565b50505050565b60606102ef82610c64565b6007546001600160a01b031633146107355760405162461bcd60e51b81526004016103ef90611717565b600061074060085490565b9050610750600880546001019055565b61075a8382610dd3565b6105258183610ded565b6007546001600160a01b0316331461078e5760405162461bcd60e51b81526004016103ef90611717565b6001600160a01b0381166107f35760405162461bcd60e51b815260206004820152602660248201527f4f776e61626c653a206e6577206f776e657220697320746865207a65726f206160448201526564647265737360d01b60648201526084016103ef565b6107fc81610b10565b50565b6000908152600260205260409020546001600160a01b0316151590565b600081815260046020526040902080546001600160a01b0319166001600160a01b038416908117909155819061085182610576565b6001600160a01b03167f8c5be1e5ebec7d5bd14f71427d1e84f3dd0314c0f7b2291e5b200ac8c7c3b92560405160405180910390a45050565b6000610895826107ff565b6108f65760405162461bcd60e51b815260206004820152602c60248201527f4552433732313a206f70657261746f7220717565727920666f72206e6f6e657860448201526b34b9ba32b73a103a37b5b2b760a11b60648201526084016103ef565b600061090183610576565b9050806001600160a01b0316846001600160a01b0316148061093c5750836001600160a01b031661093184610387565b6001600160a01b0316145b8061096c57506001600160a01b0380821660009081526005602090815260408083209388168352929052205460ff165b949350505050565b826001600160a01b031661098782610576565b6001600160a01b0316146109eb5760405162461bcd60e51b815260206004820152602560248201527f4552433732313a207472616e736665722066726f6d20696e636f72726563742060448201526437bbb732b960d91b60648201526084016103ef565b6001600160a01b038216610a4d5760405162461bcd60e51b8152602060048201526024808201527f4552433732313a207472616e7366657220746f20746865207a65726f206164646044820152637265737360e01b60648201526084016103ef565b610a5860008261081c565b6001600160a01b0383166000908152600360205260408120805460019290610a819084906117c9565b90915550506001600160a01b0382166000908152600360205260408120805460019290610aaf90849061179d565b909155505060008181526002602052604080822080546001600160a01b0319166001600160a01b0386811691821790925591518493918716917fddf252ad1be2c89b69c2b068fc378daa952ba7f163c4a11628f55a4df523b3ef91a4505050565b600780546001600160a01b038381166001600160a01b0319831681179093556040519116919082907f8be0079c531659141344cd1fd0a4f28419497f9722a3daafe3b4186f6b6457e090600090a35050565b816001600160a01b0316836001600160a01b03161415610bc45760405162461bcd60e51b815260206004820152601960248201527f4552433732313a20617070726f766520746f2063616c6c65720000000000000060448201526064016103ef565b6001600160a01b03838116600081815260056020908152604080832094871680845294825291829020805460ff191686151590811790915591519182527f17307eab39ab6107e8899845ad3d59bd9653f200f220920489ca2b5937696c31910160405180910390a3505050565b610c3c848484610974565b610c4884848484610e78565b6106fa5760405162461bcd60e51b81526004016103ef906116c5565b6060610c6f826107ff565b610cd55760405162461bcd60e51b815260206004820152603160248201527f45524337323155524953746f726167653a2055524920717565727920666f72206044820152703737b732bc34b9ba32b73a103a37b5b2b760791b60648201526084016103ef565b60008281526006602052604081208054610cee9061180c565b80601f0160208091040260200160405190810160405280929190818152602001828054610d1a9061180c565b8015610d675780601f10610d3c57610100808354040283529160200191610d67565b820191906000526020600020905b815481529060010190602001808311610d4a57829003601f168201915b505050505090506000610d8560408051602081019091526000815290565b9050805160001415610d98575092915050565b815115610dca578082604051602001610db2929190611646565b60405160208183030381529060405292505050919050565b61096c84610f85565b6106c482826040518060200160405280600081525061105d565b610df6826107ff565b610e595760405162461bcd60e51b815260206004820152602e60248201527f45524337323155524953746f726167653a2055524920736574206f66206e6f6e60448201526d32bc34b9ba32b73a103a37b5b2b760911b60648201526084016103ef565b60008281526006602090815260409091208251610525928401906112dd565b60006001600160a01b0384163b15610f7a57604051630a85bd0160e11b81526001600160a01b0385169063150b7a0290610ebc903390899088908890600401611675565b602060405180830381600087803b158015610ed657600080fd5b505af1925050508015610f06575060408051601f3d908101601f19168201909252610f03918101906115e6565b60015b610f60573d808015610f34576040519150601f19603f3d011682016040523d82523d6000602084013e610f39565b606091505b508051610f585760405162461bcd60e51b81526004016103ef906116c5565b805181602001fd5b6001600160e01b031916630a85bd0160e11b14905061096c565b506001949350505050565b6060610f90826107ff565b610ff45760405162461bcd60e51b815260206004820152602f60248201527f4552433732314d657461646174613a2055524920717565727920666f72206e6f60448201526e3732bc34b9ba32b73a103a37b5b2b760891b60648201526084016103ef565b600061100b60408051602081019091526000815290565b9050600081511161102b5760405180602001604052806000815250611056565b8061103584611090565b604051602001611046929190611646565b6040516020818303038152906040525b9392505050565b61106783836111aa565b6110746000848484610e78565b6105255760405162461bcd60e51b81526004016103ef906116c5565b6060816110b45750506040805180820190915260018152600360fc1b602082015290565b8160005b81156110de57806110c881611847565b91506110d79050600a836117b5565b91506110b8565b60008167ffffffffffffffff81111561110757634e487b7160e01b600052604160045260246000fd5b6040519080825280601f01601f191660200182016040528015611131576020820181803683370190505b5090505b841561096c576111466001836117c9565b9150611153600a86611862565b61115e90603061179d565b60f81b81838151811061118157634e487b7160e01b600052603260045260246000fd5b60200101906001600160f81b031916908160001a9053506111a3600a866117b5565b9450611135565b6001600160a01b0382166112005760405162461bcd60e51b815260206004820181905260248201527f4552433732313a206d696e7420746f20746865207a65726f206164647265737360448201526064016103ef565b611209816107ff565b156112565760405162461bcd60e51b815260206004820152601c60248201527f4552433732313a20746f6b656e20616c7265616479206d696e7465640000000060448201526064016103ef565b6001600160a01b038216600090815260036020526040812080546001929061127f90849061179d565b909155505060008181526002602052604080822080546001600160a01b0319166001600160a01b03861690811790915590518392907fddf252ad1be2c89b69c2b068fc378daa952ba7f163c4a11628f55a4df523b3ef908290a45050565b8280546112e99061180c565b90600052602060002090601f01602090048101928261130b5760008555611351565b82601f1061132457805160ff1916838001178555611351565b82800160010185558215611351579182015b82811115611351578251825591602001919060010190611336565b5061135d929150611361565b5090565b5b8082111561135d5760008155600101611362565b600067ffffffffffffffff80841115611391576113916118a2565b604051601f8501601f19908116603f011681019082821181831017156113b9576113b96118a2565b816040528093508581528686860111156113d257600080fd5b858560208301376000602087830101525050509392505050565b80356001600160a01b038116811461140357600080fd5b919050565b600060208284031215611419578081fd5b611056826113ec565b60008060408385031215611434578081fd5b61143d836113ec565b915061144b602084016113ec565b90509250929050565b600080600060608486031215611468578081fd5b611471846113ec565b925061147f602085016113ec565b9150604084013590509250925092565b600080600080608085870312156114a4578081fd5b6114ad856113ec565b93506114bb602086016113ec565b925060408501359150606085013567ffffffffffffffff8111156114dd578182fd5b8501601f810187136114ed578182fd5b6114fc87823560208401611376565b91505092959194509250565b6000806040838503121561151a578182fd5b611523836113ec565b915060208301358015158114611537578182fd5b809150509250929050565b60008060408385031215611554578182fd5b61155d836113ec565b9150602083013567ffffffffffffffff811115611578578182fd5b8301601f81018513611588578182fd5b61159785823560208401611376565b9150509250929050565b600080604083850312156115b3578182fd5b6115bc836113ec565b946020939093013593505050565b6000602082840312156115db578081fd5b8135611056816118b8565b6000602082840312156115f7578081fd5b8151611056816118b8565b600060208284031215611613578081fd5b5035919050565b600081518084526116328160208601602086016117e0565b601f01601f19169290920160200192915050565b600083516116588184602088016117e0565b83519083019061166c8183602088016117e0565b01949350505050565b6001600160a01b03858116825284166020820152604081018390526080606082018190526000906116a89083018461161a565b9695505050505050565b602081526000611056602083018461161a565b60208082526032908201527f4552433732313a207472616e7366657220746f206e6f6e20455243373231526560408201527131b2b4bb32b91034b6b83632b6b2b73a32b960711b606082015260800190565b6020808252818101527f4f776e61626c653a2063616c6c6572206973206e6f7420746865206f776e6572604082015260600190565b60208082526031908201527f4552433732313a207472616e736665722063616c6c6572206973206e6f74206f6040820152701ddb995c881b9bdc88185c1c1c9bdd9959607a1b606082015260800190565b600082198211156117b0576117b0611876565b500190565b6000826117c4576117c461188c565b500490565b6000828210156117db576117db611876565b500390565b60005b838110156117fb5781810151838201526020016117e3565b838111156106fa5750506000910152565b600181811c9082168061182057607f821691505b6020821081141561184157634e487b7160e01b600052602260045260246000fd5b50919050565b600060001982141561185b5761185b611876565b5060010190565b6000826118715761187161188c565b500690565b634e487b7160e01b600052601160045260246000fd5b634e487b7160e01b600052601260045260246000fd5b634e487b7160e01b600052604160045260246000fd5b6001600160e01b0319811681146107fc57600080fdfea2646970667358221220aa708dc38720f2bd669e73bcebbd2fb4e55a6c37b4102f3231efdf586a85bf5164736f6c634300080400334142434445464748494a4b4c4d4e4f505152535455565758595a6162636465666768696a6b6c6d6e6f707172737475767778797a303132333435363738392b2fa2646970667358221220b6b9bba90b2731b6c3d37683c0432956eff6e9c1d3b86fd5ebb177eaaba3f52464736f6c63430008040033",
  "linkReferences": {},
  "deployedLinkReferences": {}
}